S01100002E2E2F473242617369632E733139FD
S32D0000C000000000201D1B0100791E0100791E0100791E0100791E0100791E0100000000000000000000000000C1
S32D0000C02800000000791E0100791E010000000000791E0100791E0100791E0100791E0100791E0100791E01002A
S32D0000C050791E0100791E0100791E0100791E0100791E0100791E0100791E0100791E0100791E0100791E0100D2
S32D0000C078791E0100791E0100791E0100791E0100791E0100791E0100791E0100791E0100791E0100791E0100AA
S32D0000C0A0791E0100791E0100791E0100791E0100791E0100791E0100791E0100791E0100791E0100791E010082
S32D0000C0C8791E0100791E0100791E0100791E0100791E0100791E0100791E0100791E0100791E0100791E01005A
S32D0000C0F0791E0100E58E0100791E0100791E0100791E0100791E0100791E0100791E0100791E0100791E010056
S32D0000C118791E0100791E0100791E0100791E0100791E0100791E0100791E0100791E0100791E0100791E010009
S32D0000C140791E0100791E0100791E0100791E0100AD550100791E0100791E0100791E0100791E0100791E010076
S32D0000C168791E0100791E0100791E0100791E0100791E0100791E0100791E0100791E0100791E0100791E0100B9
S32D0000C190791E0100791E0100791E01000D500100614E0100354F0100C91E0100E5500100791E0100791E0100D8
S32D0000C1B8791E0100791E0100791E0100791E0100791E0100791E0100791E0100791E0100791E0100791E010069
S32D0000C41081F0004102E000BF83F0004330B54FEA41044FEA430594EA050F08BF90EA020F1FBF54EA000C55EAC6
S32D0000C438020C7FEA645C7FEA655C00F0E2804FEA5454D4EB5555B8BF6D420CDD2C4480EA020281EA030382EA0F
S32D0000C460000083EA010180EA020281EA0303362D88BF30BD11F0004F4FEA01314FF4801C4CEA113102D0404263
S32D0000C48861EB410113F0004F4FEA03334CEA133302D0524263EB430394EA050F00F0A780A4F10104D5F1200E8A
S32D0000C4B00DDB02FA0EFC22FA05F2801841F1000103FA0EF2801843FA05F359410EE0A5F120050EF1200E012A2D
S32D0000C4D803FA0EFC28BF4CF0020C43FA05F3C01851EBE37101F0004507D54FF0000EDCF1000C7EEB00006EEB67
S32D0000C5000101B1F5801F1BD3B1F5001F0CD349085FEA30004FEA3C0C04F101044FEA445212F5800F80F09A8000
S32D0000C528BCF1004F08BF5FEA500C50F1000041EB045141EA050130BD5FEA4C0C404141EB010111F4801FA4F114
S32D0000C5500104E9D191F0000F04BF01460020B1FA81F308BF2033A3F10B03B3F120020CDA0C3208DD02F1140C87
S32D0000C578C2F10C0201FA0CF021FA02F10CE002F11402D8BFC2F1200C01FA02F120FA0CFCDCBF41EA0C019040B1
S32D0000C5A0E41AA2BF01EB0451294330BD6FEA04041F3C1CDA0C340EDC04F11404C4F1200220FA04F001FA02F3B6
S32D0000C5C840EA030021FA04F345EA030130BDC4F10C04C4F1200220FA02F001FA04F340EA0300294630BD21FAA8
S32D0000C5F004F0294630BD94F0000F83F4801306BF81F480110134013D4EE77FEA645C18BF7FEA655C29D094EA1C
S32D0000C618050F08BF90EA020F05D054EA000C04BF1946104630BD91EA030F1EBF0021002030BD5FEA545C05D1A3
S32D0000C6404000494128BF41F0004130BD14F580043CBF01F5801130BD01F0004545F0FE4141F470014FF0000031
S32D0000C66830BD7FEA645C1ABF194610467FEA655C1CBF0B46024650EA013406BF52EA033591EA030F41F40021D7
S32D0000C69030BD00BF90F0000F04BF0021704730B54FF4806404F132044FF000054FF0000150E700BF90F0000F66
S32D0000C6B804BF0021704730B54FF4806404F1320410F0004548BF40424FF000013EE700BF42004FEAE2014FEAF9
S32D0000C6E031014FEA02701FBF12F07F4393F07F4F81F06051704792F0000F14BF93F07F4F704730B54FF460741B
S32D0000C70801F0004521F0004120E700BF50EA010208BF704730B54FF000050AE050EA010208BF704730B511F046
S32D0000C730004502D5404261EB41014FF4806404F132045FEA915C3FF4DCAE4FF003025FEADC0C18BF03325FEAA0
S32D0000C758DC0C18BF033202EBDC02C2F1200300FA03FC20FA02F001FA03FE40EA0E0021FA02F11444C1E600BF19
S32D0000C78070B54FF0FF0C4CF4E06C1CEA11541DBF1CEA135594EA0C0F95EA0C0F00F0DEF82C4481EA030621EAF3
S32D0000C7A84C5123EA4C5350EA013518BF52EA033541F4801143F4801338D0A0FB02CE4FF00005E1FB02E506F05F
S32D0000C7D00042E0FB03E54FF00006E1FB03569CF0000F18BF4EF0010EA4F1FF04B6F5007F64F5407404D25FEA0F
S32D0000C7F84E0E6D4146EB060642EAC62141EA55514FEAC52040EA5E504FEACE2EB4F1FD0C88BFBCF5E06F1ED8D2
S32D0000C820BEF1004F08BF5FEA500E50F1000041EB045170BD06F0004646EA010140EA020081EA0301B4EB5C0487
S32D0000C848C2BFD4EB0C0541EA045170BD41F480114FF0000E013C00F3AB8014F1360FDEBF002001F0004170BDF0
S32D0000C870C4F10004203C35DA0C341BDC04F11404C4F1200500FA05F320FA04F001FA05F240EA020001F0004207
S32D0000C89821F0004110EBD37021FA04F642EB06015EEA430E08BF20EAD37070BDC4F10C04C4F1200500FA04F32F
S32D0000C8C020FA05F001FA04F240EA020001F0004110EBD37041F100015EEA430E08BF20EAD37070BDC4F12005C7
S32D0000C8E800FA05F24EEA020E20FA04F301FA05F243EA020321FA04F001F0004121FA04F220EA020000EBD37028
S32D0000C9105EEA430E08BF20EAD37070BD94F0000F0FD101F00046400041EB010111F4801F08BF013CF7D041EA6D
S32D0000C938060195F0000F18BF704703F00046520043EB030313F4801F08BF013DF7D043EA0603704794EA0C0FF1
S32D0000C9600CEA135518BF95EA0C0F0CD050EA410618BF52EA4306D1D181EA030101F000414FF0000070BD50EA38
S32D0000C988410606BF1046194652EA430619D094EA0C0F02D150EA013613D195EA0C0F05D152EA03361CBF10467B
S32D0000C9B019460AD181EA030101F0004141F0FE4141F470014FF0000070BD41F0FE4141F4780170BD70B54FF04D
S32D0000C9D8FF0C4CF4E06C1CEA11541DBF1CEA135594EA0C0F95EA0C0F00F0A7F8A4EB050481EA030E52EA03359B
S32D0000CA004FEA013100F088804FEA03334FF0805545EA131343EA12634FEA022245EA111545EA10654FEA002676
S32D0000CA280EF000419D4208BF964244F1FD0404F5407402D25B084FEA3202B61A65EB03055B084FEA32024FF461
S32D0000CA5080104FF4002CB6EB020E75EB030E22BFB61A754640EA0C005B084FEA3202B6EB020E75EB030E22BF22
S32D0000CA78B61A754640EA5C005B084FEA3202B6EB020E75EB030E22BFB61A754640EA9C005B084FEA3202B6EBEA
S32D0000CAA0020E75EB030E22BFB61A754640EADC0055EA060E18D04FEA051545EA16754FEA06164FEAC30343EAAC
S32D0000CAC852734FEAC2025FEA1C1CC0D111F4801F0BD141EA00014FF000004FF0004CB6E711F4801F04BF0143AE
S32D0000CAF00020B4F1FD0C88BFBCF5E06F3FF6AFAEB5EB030C04BFB6EB020C5FEA500C50F1000041EB045170BDBC
S32D0000CB180EF0004E4EEA113114EB5C04C2BFD4EB0C0541EA045170BD41F480114FF0000E013C90E645EA060EC3
S32D0000CB408DE60CEA135594EA0C0F08BF95EA0C0F3FF43BAF94EA0C0F0AD150EA01347FF434AF95EA0C0F7FF499
S32D0000CB6825AF104619462CE795EA0C0F06D152EA03353FF4FDAE1046194622E750EA410618BF52EA43067FF432
S32D0000CB90C5AE50EA41047FF40DAF52EA43057FF4EBAE12E74FF0FF3C06E000BF4FF0010C02E000BF4FF0010C75
S32D0000CBB84DF804CD4FEA410C7FEA6C5C4FEA430C18BF7FEA6C5C1BD001B050EA410C0CBF52EA430C91EA030FEC
S32D0000CBE002BF90EA020F0020704710F1000F91EA030F58BF994208BF90422CBFD8176FEAE37040F0010070476E
S32D0000CC084FEA410C7FEA6C5C02D150EA013C07D14FEA430C7FEA6C5CD6D152EA033CD3D05DF8040B704700BFCD
S32D0000CC308446104662468C461946634600E000BF01B5FFF7B7FF002848BF10F1000F01BD4DF808EDFFF7F4FF13
S32D0000CC580CBF012000205DF808FB00BF4DF808EDFFF7EAFF34BF012000205DF808FB00BF4DF808EDFFF7E0FF18
S32D0000CC8094BF012000205DF808FB00BF4DF808EDFFF7CEFF94BF012000205DF808FB00BF4DF808EDFFF7C4FF40
S32D0000CCA834BF012000205DF808FB00BF4FEA410212F5001215D211D56FF47873B3EB625212D94FEAC12343F0D6
S32D0000CCD0004343EA505311F0004F23FA02F018BF404270474FF00000704750EA013005D111F0004008BF6FF016
S32D0000CCF8004070474FF00000704700BF4A0011D212F5001211D20DD56FF47873B3EB62520ED44FEAC12343F085
S32D0000CD20004343EA505323FA02F070474FF00000704750EA013002D14FF0FF3070474FF0000070474FEA410241
S32D0000CD48B2F1E04324BFB3F5001CDCF1FE5C0DD901F0004C4FEAC0024CEA5070B2F1004F40EB830008BF20F09E
S32D0000CD700100704711F0804F21D113F13872BCBF01F00040704741F480114FEA5252C2F11802C2F1200C10FAB1
S32D0000CD980CF320FA02F018BF40F001004FEAC1234FEAD32303FA0CFC40EA0C0023FA02F34FEA4303CCE77FEA26
S32D0000CDC0625307D150EA01331EBF4FF0FE4040F44000704701F0004040F0FE4040F40000704700BF80F00040CC
S32D0000CDE802E000BF81F0004142001FBF5FEA410392EA030F7FEA226C7FEA236C6AD04FEA1262D2EB1363C1BF06
S32D0000CE10D218414048404140B8BF5B42192B88BF704710F0004F40F4000020F07F4018BF404211F0004F41F4FA
S32D0000CE38000121F07F4118BF494292EA030F3FD0A2F1010241FA03FC10EB0C00C3F1200301FA03F100F000432B
S32D0000CE6002D5494260EB4000B0F5000F13D3B0F1807F06D340084FEA310102F10102FE2A51D2B1F1004F40EB94
S32D0000CE88C25008BF20F0010040EA03007047490040EB000010F4000FA2F10102EDD1B0FA80FCACF1080CB2EB5F
S32D0000CEB00C0200FA0CF0AABF00EBC25052421843BCBFD0401843704792F0000F81F4000106BF80F400000132EB
S32D0000CED8013BB5E74FEA41037FEA226C18BF7FEA236C21D092EA030F04D092F0000F08BF0846704790EA010FD7
S32D0000CF001CBF0020704712F07F4F04D1400028BF40F00040704712F100723CBF00F50000704700F0004343F0DC
S32D0000CF28FE4040F4000070477FEA226216BF08467FEA23630146420206BF5FEA412390EA010F40F480007047C1
S32D0000CF504FF0000304E000BF10F0004348BF40425FEA000C08BF704743F0964301464FF000001CE050EA010264
S32D0000CF7808BF70474FF000030AE000BF50EA010208BF704711F0004302D5404261EB41015FEA010C02BF84465B
S32D0000CFA00146002043F0B64308BFA3F18053A3F50003BCFA8CF2083AA3EBC25310DB01FA02FC634400FA02FC6B
S32D0000CFC8C2F12002BCF1004F20FA02F243EB020008BF20F00100704702F1200201FA02FCC2F1200250EA4C0034
S32D0000CFF021FA02F243EB020008BF20EADC7070474FF0FF0C1CEAD0521EBF1CEAD15392EA0C0F93EA0C0F6FD019
S32D0000D0181A4480EA010C400218BF5FEA41211ED04FF0006343EA501043EA5111A0FB01310CF00040B1F5000FE7
S32D0000D0403EBF490041EAD3715B0040EA010062F17F02FD2A1DD8B3F1004F40EBC25008BF20F00100704790F058
S32D0000D068000F0CF0004C08BF49024CEA502040EA51207F3AC2BFD2F1FF0340EAC250704740F400004FF0000388
S32D0000D090013A5DDC12F1190FDCBF00F000407047C2F10002410021FA02F1C2F1200200FA02FC5FEA310040F1D5
S32D0000D0B8000053EA4C0308BF20EADC70704792F0000F00F0004C02BF400010F4000F013AF9D040EA0C0093F04C
S32D0000D0E0000F01F0004C02BF490011F4000F013BF9D041EA0C018FE70CEAD15392EA0C0F18BF93EA0C0F0AD00B
S32D0000D10830F0004C18BF31F0004CD8D180EA010000F00040704790F0000F17BF90F0004F084691F0000F91F0BB
S32D0000D130004F14D092EA0C0F01D142020FD193EA0C0F03D14B0218BF084608D180EA010000F0004040F0FE4051
S32D0000D15840F40000704740F0FE4040F4400070474FF0FF0C1CEAD0521EBF1CEAD15392EA0C0F93EA0C0F69D044
S32D0000D180A2EB030280EA010C49024FEA402037D04FF0805343EA111143EA10130CF000408B4238BF5B0042F14E
S32D0000D1A87D024FF4000C8B4224BF5B1A40EA0C00B3EB510F24BFA3EB510340EA5C00B3EB910F24BFA3EB9103A4
S32D0000D1D040EA9C00B3EBD10F24BFA3EBD10340EADC001B0118BF5FEA1C1CE0D1FD2A3FF650AF8B4240EBC25018
S32D0000D1F808BF20F0010070470CF0004C4CEA50207F32C2BFD2F1FF0340EAC250704740F400004FF00003013AF1
S32D0000D22037E792F0000F00F0004C02BF400010F4000F013AF9D040EA0C0093F0000F01F0004C02BF490011F4C9
S32D0000D248000F013BF9D041EA0C0195E70CEAD15392EA0C0F08D142027FF47DAF93EA0C0F7FF470AF084676E7AE
S32D0000D27093EA0C0F04D14B023FF44CAF08466EE730F0004C18BF31F0004CCAD130F000427FF45CAF31F0004376
S32D0000D2987FF43CAF5FE700BF4FF0FF3C06E000BF4FF0010C02E000BF4FF0010C4DF804CD4FEA40024FEA41039F
S32D0000D2C07FEA226C18BF7FEA236C11D001B052EA530C18BF90EA010F58BFB2EB030088BFC81738BF6FEAE1706E
S32D0000D2E818BF40F0010070477FEA226C02D15FEA402C05D17FEA236CE4D15FEA412CE1D05DF8040B704700BF16
S32D0000D310844608466146FFE70FB5FFF7C9FF002848BF10F1000F0FBD4DF808EDFFF7F4FF0CBF012000205DF839
S32D0000D33808FB00BF4DF808EDFFF7EAFF34BF012000205DF808FB00BF4DF808EDFFF7E0FF94BF012000205DF8A9
S32D0000D36008FB00BF4DF808EDFFF7D2FF94BF012000205DF808FB00BF4DF808EDFFF7C8FF34BF012000205DF8B1
S32D0000D38808FB00BF4FEA4002B2F1FE4F0FD34FF09E03B3EB12620DD94FEA002343F0004310F0004F23FA02F060
S32D0000D3B018BF404270474FF00000704712F1610F01D1420205D110F0004008BF6FF0004070474FF00000704797
S32D0000D3D842000ED2B2F1FE4F0BD34FF09E03B3EB126209D44FEA002343F0004323FA02F070474FF000007047DA
S32D0000D40012F1610F01D1420202D14FF0FF3070474FF00000704700BF80B582B000AF78607A687B68DB6810467C
S32D0000D428194608F001FB07F10807BD4680BD00BF80B582B000AF78607A687B681B691046194608F0F1FA07F1B6
S32D0000D4500807BD4680BD00BF80B483B000AFC7E900013A68796821F000431046194607F10C07BD4680BC70474C
S32D0000D478B0B58AB002AF78607B6803F150031846FFF7D6FF7B6803F13003184603F0A0F941F2AC40C1F6FF70D2
S32D0000D4A04BF6E001C0F2010109F0A2FB7C687B68D3E92223104619465BA3D3E90023FEF7ADFF02460B46104608
S32D0000D4C81946FFF73BFC03462046194602F090FF41F2AC40C1F6FF704BF6EC01C0F2010109F082FB7B6818463D
S32D0000D4F04FF000024FF0000302F066F87B68184602F052FA7B68184649A3D3E9002301F04FFE49A1D1E90001CD
S32D0000D51807F0EAF87B68184601F0B4FE7B681846534903F055F87B6818463FA3D3E9002301F03AFE40A1D1E945
S32D0000D540000107F0D5F87B6818464B4903F044F87C687B68D3E92023104619463AA3D3E90023FEF75BFF024626
S32D0000D5680B4610461946FFF7E9FB03462046194602F00EFB4FF00003FB777B6803F14C03184607F04DFE0346E9
S32D0000D5901846FFF7A1F802460B464FF001010C46104619462AA3D3E90023FFF75BFB0346002B02D14FF000031E
S32D0000D5B81C46E3B2002B02D04FF00103FB77FB7F002B57D0796822A3D3E90023CDE90023084621A3D3E9002381
S32D0000D5E001F066FE796816A3D3E90023CDE9002308464FF000024FF0404303F5880302F047F97B68184618A374
S32D0000D608D3E9002301F0D0FD15A1D1E9000107F06BF815A1D1E9000107F066F881E000BF9A99999999992B40A4
S32D0000D630333333333333E33F333333333333D33F9A9999999999D93F3333333333B33540666666666666D63FE5
S32D0000D658333333333333D3BF333333333333C33F9A9999999999C93F3333333333331540000000007968A6A35C
S32D0000D680D3E90023CDE9002308464FF000024FF0804301F00DFE7B681846C34902F09CFF79689DA3D3E900235D
S32D0000D6A8CDE9002308464FF000024FF0804301F0FBFD7B681846BA4902F08AFF7C687B68D3E9202310461946C7
S32D0000D6D093A3D3E90023FEF7A1FE02460B4610461946FFF72FFB03462046194602F054FA796889A3D3E90023DB
S32D0000D6F8CDE9002308468AA3D3E9002302F0C4F87B68184688A3D3E9002301F04DFD86A1D1E9000106F0E8FFDE
S32D0000D72085A1D1E9000106F0E3FF796884A3D3E90023CDE9002308464FF000024FF07E5303F5C00301F0B4FD66
S32D0000D7487B6818464FF000024FF0000301F038FFFB7F002B0CD0796879A3D3E90023CDE9002308464FF0000202
S32D0000D7704FF0804301F09CFD7C687B68D3E920231046194672A3D3E90023FEF747FE02460B4610461946FFF712
S32D0000D798D5FA03462046194602F0FAF97B6803F13003184603F044F84FF000004FF0804101F5801106F098FFB7
S32D0000D7C07B6803F13003184603F006F84FF000004FF07E5101F5C00106F08AFF79685EA3D3E90023CDE90023C5
S32D0000D7E808465DA3D3E9002301F05EFD79685CA3D3E90023CDE9002308465BA3D3E9002302F042F879685AA3CD
S32D0000D810D3E90023CDE9002308464FF000024FF0804303F5C01301F043FD3BA1D1E9000106F05EFF7B6818467A
S32D0000D8384FF000024FF0000301F0C2FE79684EA3D3E90023CDE9002308464FF000024FF0804303F5002301F067
S32D0000D86027FD7C687B68D3E92023104619464FF000024FF0804303F57413FEF7CFFD02460B4610461946FFF734
S32D0000D8885DFA03462046194602F082F97B6818463BA3D3E9002301F093FE79683AA3D3E90023CDE9002308465C
S32D0000D8B04FF000024FF0804303F5E01301F0F8FC796835A3D3E90023CDE90023084634A3D3E9002301F036FC9F
S32D0000D8D806F036FF02460B4610461946FFF72EFA0346FB6000BF41F21450C1F6FF700CF0C3FD03464FF0010224
S32D0000D900144618462949FFF719FD0346002B4FD14FF000031C464BE09A9999999999D93F3333333333F3394046
S32D0000D92800000000008041C09A9999999999C93F3333333333331540333333333333D3BF666666666666E63FDD
S32D0000D950CDCCCCCCCCCC3C40666666666666E6BFCDCCCCCCCCCC1C409A9999999999E9BF00000000008046C071
S32D0000D978CDCCCCCCCCCCEC3F9A9999999999E93F0000000000805640666666666666EE3F14AE47E17A14EE3F82
S32D0000D9A085EB51B81E85EB3F0000000000004442E3B2002B25D006F0C7FE04460D46F868FEF78AFE02460B460A
S32D0000D9C820462946FEF724FD02460B464FF001010C46104619464FF000024FF08043FFF73DF90346002B02D1AF
S32D0000D9F04FF000031C46E3B2002B02D04FF0010301E04FF00003002B7FF471AF7B68184601F03CFC7B684FF023
S32D0000DA180102009218464FF000024FF0404303F5081301F0BDFE7B681846D94902F0D0FD41F21450C1F6FF704C
S32D0000DA400CF01EFD03461846FEF746FE02460B4610461946AEA3D3E90023FEF7DDFC02460B4610461946FFF731
S32D0000DA6825F90346BB61AAA3D3E90023C7E90423BB69002B09DA3B693B617B6983F000437B61BB69C3F1000347
S32D0000DA90BB617C68B869FEF70DFE02460B46D7E90401CDE90001204601F002FC7C687B68D3E922231046194660
S32D0000DAB899A3D3E90023FEF7ADFC02460B4610461946FFF73BF903462046194602F090FC796893A3D3E900238D
S32D0000DAE0CDE9002308464FF000024FF0804303F59C0301F0CDFE4FF000004FF07E5101F5C00106F0F5FD7B688C
S32D0000DB08184689A3D3E9002301F05AFD796888A3D3E90023CDE9002308464FF000024FF07E5303F5E00301F00F
S32D0000DB30BFFB7C687B68D3E920231046194680A3D3E90023FEF76AFC02460B4610461946FFF7F8F80346204652
S32D0000DB58194602F0D9F97B6818468E4902F038FD7B6803F13003184602F052FE6CA1D1E9000106F0B9FD79683E
S32D0000DB8071A3D3E90023CDE90023084670A3D3E9002301F0D7FA70A1D1E9000106F0A8FD7B68184601F072FBA3
S32D0000DBA87B6803F13003184602F012FE66A1D1E9000106F099FD7B68184667A3D3E9002301F0FEFC796852A3AC
S32D0000DBD0D3E90023CDE9002308464FF000024FF07E5303F5F00301F063FB7C687B68D3E920231046194652A326
S32D0000DBF8D3E90023FEF70EFC02460B4610461946FFF79CF803462046194602F0B1F87B6803F13003184602F046
S32D0000DC20FBFD41A1D1E9000106F062FD79684EA3D3E90023CDE9002308464DA3D3E9002301F080FA4CA1D1E933
S32D0000DC48000106F051FD79684BA3D3E90023CDE9002308464AA3D3E9002301F06FFA3AA1D1E9000106F040FDA5
S32D0000DC707B68184601F00AFB7B6803F13003184602F0AAFD32A1D1E9000106F031FD7B681846434902F0A0FC41
S32D0000DC987C687B68D3E92023104619463AA3D3E90023FEF7B7FB02460B4610461946FFF745F8034620461946F1
S32D0000DCC002F026F9796830A3D3E90023CDE9002308464FF000024FF0804303F5801301F0E7FA796818A3D3E973
S32D0000DCE80023CDE90023084617A3D3E9002301F025FA4FF000004FF07E5101F5D00106F0F3FC4BE0AFF30080D5
S32D0000DD106666666666064F40333333333333E3BF6666666666864E40666666666666E63F0000000000806640BD
S32D0000DD389A9999999999D9BFCDCCCCCCCCCC3940666666666666D63F9A9999999999C93F333333333333F33FD0
S32D0000DD600000000000C066407B14AE47E17AEC3F333333333333E33F9A9999999999D93F85EB51B81E85DB3FEC
S32D0000DD88333333333333D33FCDCCCCCCCCCC34400000BE42000036430000434379684FF000024FF07E5303F5C3
S32D0000DDB0C003CDE9002308464FF000024FF0804303F5781301F064FD7B68184601F05EFA7B6803F13003184651
S32D0000DDD802F00EFDB6A1D1E9000106F085FC7B6803F13003184602F0F3FCB3A1D1E9000106F07AFC7968B2A39D
S32D0000DE00D3E90023CDE9002308464FF000024FF0804303F5801301F04BFA7968ACA3D3E90023CDE900230846B4
S32D0000DE28A5A3D3E9002301F089F9A1A1D1E9000106F05AFC7B68184601F024FA7B681846A3A3D3E9002301F042
S32D0000DE50BBFB41F21450C1F6FF700CF011FB03461846FEF739FC02460B46104619469CA3D3E90023FEF7D0FA2D
S32D0000DE7802460B46104619467B68D3E92223FEF7C9FA02460B4610461946FEF70FFF0346BB607C68B868FEF7E4
S32D0000DEA009FC02460B4690A1D1E90001CDE90001204601F0FDF97C687B68D3E92223104619468BA3D3E900233C
S32D0000DEC8FEF7A8FA02460B4610461946FEF736FF03462046194602F0F3F87B68184684A3D3E9002301F060F9A1
S32D0000DEF04FF000004FF07E5101F5C00106F0F8FB79687FA3D3E90023CDE9002308464FF000024FF0804303F5D3
S32D0000DF18A80301F0B9FC79684FF000024FF03F4303F56003CDE9002308464FF000024FF07E5303F5C00301F028
S32D0000DF40B7F96DA1D1E9000106F0D2FB7B6818466DA3D3E9002301F037FB7C687B68D3E92023104619466AA39C
S32D0000DF68D3E90023FEF756FA02460B4610461946FEF7E4FE03462046194601F0F9FE7B6803F150031846FFF7CE
S32D0000DF9043FA4FF000004FF0804106F0A9FB7B6803F150031846FFF747FA79685AA3D3E90023CDE900230846AA
S32D0000DFB84FF000024FF07E5303F5C00301F074F979684BA3D3E90023CDE9002308463CA3D3E9002301F0B2F8A3
S32D0000DFE04FA1D1E9000106F083FB7B68184601F04DF941A1D1E9000106F07AFB7B68184649A3D3E9002301F077
S32D0000E008DFFA7B68184642A3D3E9002301F0CCF84FF000004FF07E5101F5C00106F064FB7B68184601F02EF9A5
S32D0000E03079683FA3D3E90023CDE90023084636A3D3E9002301F07EF835A1D1E9000106F04FFB79682AA3D3E99F
S32D0000E0580023CDE90023084635A3D3E9002301F06DF835A1D1E9000106F03EFB7B6818464FF000024FF03F4340
S32D0000E08003F5600301F094F84FF000004FF07E5101F5E00106F02CFB796813A3D3E90023CDE9002308464FF07D
S32D0000E0A800024FF07E5303F5E00301F0FDF847E0333333333333E33F333333333333D33F9A9999999999E93FF9
S32D0000E0D0666666666666E63F0000000000E070403333333333F34440AE47E17A14AEEF3F6666666666264440AB
S32D0000E0F89A9999999999C93F9A9999999999E9BF00000000008066400C022B8716992340666666666666E6BF1B
S32D0000E120CDCCCCCCCCCCE43F00000000008056409A9999999999D9BF333333333333D3BF9A9999999999D93F2D
S32D0000E148796841A3D3E90023CDE90023084640A3D3E9002300F0F2FF4FF000004FF0804106F0C2FA7B68184609
S32D0000E17001F08CF879683AA3D3E90023CDE9002308464FF000024FF0000300F0DBFF4FF000004FF0804106F0C6
S32D0000E198ABFA7B68184601F075F879682AA3D3E90023CDE9002308464FF000024FF0804303F5501301F0DCF8FE
S32D0000E1C0796829A3D3E90023CDE90023084628A3D3E9002300F0B6FF27A1D1E9000106F087FA796826A3D3E9CF
S32D0000E1E80023CDE90023084625A3D3E9002301F0BFF87B68184614A3D3E9002300F0D4FF4FF000004FF0804197
S32D0000E21001F5002106F06CFA7B68184601F036F841F2AC40C1F6FF704BF6F401C0F2010108F0DEFC4FF00000CD
S32D0000E2384FF0804101F5101106F056FA07F12007BD46B0BDAFF30080666666666666E6BF9A9999999999C93F02
S32D0000E260333333333333E3BF9A9999999999D93FCDCCCCCCCCCCEC3F9A9999999999E93F666666666666E63FD1
S32D0000E2880000000000805140B0B5ADF50C7D06AF07F1040318603B4619604FF0000387F8173241F2AC40C1F6C1
S32D0000E2B0FF704FF47F0108F08FF941F2AC40C1F6FF704BF60411C0F2010108F0C9FB41F2AC40C1F6FF704FF0FF
S32D0000E2D8000108F07DF93B4641F2AC40C1F6FF70196808F081FC41F2AC40C1F6FF704BF61011C0F2010108F09A
S32D0000E30077FC07F10C031D464FF0010406E0284609F0E4FF05F1EC0504F1FF34B4F1FF3F0CBF00230123DBB20D
S32D0000E328002BF0D107F5F2734FF000021A6003F104034FF000021A6003F104034FF000021A6003F104034FF019
S32D0000E35000021A6003F104034FF000021A6003F104034FF000021A6003F104034FF000021A6003F104034FF0C7
S32D0000E37800021A6003F104034FF000021A6003F104034FF000021A6003F1040346F25953C0F27303C7F8E431B4
S32D0000E3A007F5F4734FF000021A6003F104034FF000021A6003F104034FF000021A6003F104034FF000021A600F
S32D0000E3C803F1040346F64E73C7F8F83107F5FE734FF000021A6003F104034FF000021A6003F104034FF000022D
S32D0000E3F01A6003F104034FF000021A6003F1040307F10C034FF03C0200924FF0140201924FF01402029207F5F1
S32D0000E418F27203924FF0000204924FF47F02059218464FF001014FF002024FF064030AF05DFA4FF0000387F811
S32D0000E44016324BE000BF07F5047207F5037341F2AC40C1F6FF7011461A4608F0CDF9034683F00103DBB2002B66
S32D0000E468EDD1D7F81022D7F80C3207F10C01084611461A464FF000030AF07EF80346002B0CBF00230123DBB2EB
S32D0000E490002B08D04FF0010387F817324FF0010387F816321AE0D7F81022D7F80C3207F10C0101F1EC0108460C
S32D0000E4B811461A464FF000030AF05EF80346002B0CBF00230123DBB2002B03D04FF0010387F8163297F81632FB
S32D0000E4E083F00103DBB2002BACD141F2AC40C1F6FF706FF07F4108F011F807A1D1E9000106F0F6F897F81732DE
S32D0000E508184607F50677BD46B0BD00BFAFF300809A9999999999C93F80B582B000AF786041F21450C1F6FF7073
S32D0000E5300BF0C6FA41F21450C1F6FF700BF044FF03461A467B6883F8902041F2AC40C1F6FF706FF07F4107F0F5
S32D0000E558E1FF41F2AC40C1F6FF704FF0000108F037F807F10807BD4680BD00BF80B584B000AF78604FF00103D0
S32D0000E580FB737B6893F890307A2B08D178684BF61C11C0F20101FFF77BFE0346FB73FB7B184607F11007BD4645
S32D0000E5A880BD00BFB0B5ADF5876D06AF07F11003A3F10C0318604FF0000387F81F3407F108031D464FF00204B4
S32D0000E5D006E0284609F082FE05F1EC0504F1FF34B4F1FF3F0CBF00230123DBB2002BF0D107F533731D464FF08F
S32D0000E5F8000406E0284609F06DFE05F1EC0504F1FF34B4F1FF3F0CBF00230123DBB2002BF0D107F56E724FF0A1
S32D0000E6203C0310464FF000011A460CF0CEF807F57F734FF000021A6003F104034FF000021A6003F104034FF03C
S32D0000E64800021A6003F104034FF000021A6003F104034FF000021A6003F104034BF64412C0F2010207F57F7387
S32D0000E67007CA03C31A7007F5806303F105034FF000021A7003F101034FF000021A7003F101034FF000021A702F
S32D0000E69803F101034FF000021A7003F101034FF000021A7003F101034FF000021A7003F101034FF000021A7048
S32D0000E6C003F101034FF000021A7003F101034FF000021A7003F101034FF000021A7003F101034FF000021A7020
S32D0000E6E803F1010307F108034FF0780200924FF0190201924FF01902029207F56E7203924FF0000204924FF458
S32D0000E7107F02059218464FF001014FF003024FF028030AF0E7F807F533734FF0280200924FF0190201924FF0D4
S32D0000E7381902029207F57F7203924FF0000204924FF47F02059218464FF001014FF001024FF078030AF0CAF8F9
S32D0000E76041F2AC40C1F6FF706FF07F4107F00CFF04E14FF0000387F81E34C3E041F21450C1F6FF700BF06CFE68
S32D0000E7880346C7F8183441F21450C1F6FF700BF073FE0346C7F8143441F21450C1F6FF700BF07AFE0346C7F85E
S32D0000E7B010344FF0000387F81E3407F108031846D7F8181409F0F8FF07F1080303F1EC031846D7F8141409F064
S32D0000E7D8EFFF07F1080303F5EC731846D7F8101409F0E6FFD7F81804FDF772FF07F11003A3F10C031B68D3E95F
S32D0000E8001A23FDF709FE02460B4610461946FEF723FE02460B464FF001010C46104619464FF000024FF07E531C
S32D0000E82803F5C003FEF71AFA0346002B02D14FF000031C46E3B2002B58D0D7F81404FDF747FF07F11003A3F16B
S32D0000E8500C031B68D3E91C23FDF7DEFD02460B4610461946FEF7F8FD02460B464FF001010C46104619464FF0E6
S32D0000E87800024FF07E5303F5C003FEF7EFF90346002B02D14FF000031C46E3B2002B2DD0D7F81004FDF71CFF2E
S32D0000E8A007F11003A3F10C031B68D3E91E23FDF7B3FD02460B4610461946FEF7CDFD02460B464FF001010C463F
S32D0000E8C8104619464FF000024FF07E5303F5C003FEF7C4F90346002B02D14FF000031C46E3B2002B02D04FF0F3
S32D0000E8F0010301E04FF00003002B03D04FF0010387F81E3407F57E7207F57D7341F2AC40C1F6FF7011461A46ED
S32D0000E91807F06EFF034683F00103DBB2002B7FF429AFD7F8F823D7F8F43307F53371084611461A464FF00003E3
S32D0000E94009F01EFE0346002B0CBF00230123DBB2002B13D000BF07F57E7207F57D7341F2AC40C1F6FF70114640
S32D0000E9681A4607F045FF0346002BF0D14FF0010387F81F3497F81F3483F00103DBB2002B7FF4F3AE41F2AC4058
S32D0000E990C1F6FF706FF07F4107F0C0FD07F58467BD46B0BD90B583B000AF786000BF7B6803F14C03184606F0D1
S32D0000E9B837FC03464FF00102144618460949FEF7D7FC0346002B02D14FF000031C46E3B2002BE8D14FF00103FA
S32D0000E9E0184607F10C07BD4690BD00BF0000403F80B584B002AF78607B6803F13003184601F00AFF79684FF09E
S32D0000EA0800024FF07E5303F5A003CDE9002308464FF000024FF0804303F5081300F044FC7B6803F1300318461E
S32D0000EA3001F0D2FE07F10807BD4680BD80B586B000AF786070E005F07FFE02460B46104619464FF000024FF02E
S32D0000EA58804303F5B203FDF78FFE02460B4610461946FEF723F903467B61796946F26763C6F2666383FB010334
S32D0000EA804FEA63024FEAE173D21A13464FEA83039B18CA1A002A47D141F2AC40C1F6FF704FF0000107F098FD4F
S32D0000EAA87B6803F14C03184606F0BAFB034641F2AC40C1F6FF7019464FF000024FF0030307F0C6FD05F03CFEB5
S32D0000EAD002460B46104619464FF000024FF0804303F5B203FDF74CFE02460B4610461946FEF7E0F803467B615C
S32D0000EAF879694AF6AB23C2F6AA2383FB01024FEAE173D21A13464FEA43039B184FEA4303CA1A002A14BF002373
S32D0000EB200123DBB2002BD1D107F1100207F10C0341F2AC40C1F6FF7011461A4607F05CFE034683F00103DBB29E
S32D0000EB48002B7FF47CAF07F11807BD4680BD00BF80B584B002AF786041F2AC40C1F6FF704BF64C21C0F2010127
S32D0000EB7008F03EF84FF000004FF07E5101F5E00105F0B6FD7B6818464FF000024FF07E5303F5C00300F00CFB39
S32D0000EB984FF000004FF07E5101F5E00105F0A4FD7B68184600F06EFB4FF000004FF07E5101F5E00105F098FD4D
S32D0000EBC07B6818464FF000024FF03F4303F5600300F0EEFA4FF000004FF07E5101F5E00105F086FD7B681846D4
S32D0000EBE800F050FB41F2AC40C1F6FF704BF66821C0F2010107F0F8FF4FF000004FF07E5101F5E00105F070FD8D
S32D0000EC1079684FF000024FF07E5303F5C003CDE9002308464FF000024FF07E5303F5C00300F0ECF94FF00000A2
S32D0000EC384FF07E5101F5E00105F056FD7B68184600F020FB4FF000004FF07E5101F5E00105F04AFD79684FF0B5
S32D0000EC6000024FF07E5303F5C003CDE9002308464FF000024FF03F4303F5600300F0C6F94FF000004FF07E5139
S32D0000EC8801F5E00105F030FD7B68184600F0FAFA4FF000004FF07E5101F5E00105F024FD79684FF000024FF0A5
S32D0000ECB03F4303F56003CDE9002308464FF000024FF07E5303F5C00300F0A0F94FF000004FF07E5101F5E00179
S32D0000ECD805F00AFD7B68184600F0D4FA4FF000004FF07E5101F5E00105F0FEFC79684FF000024FF03F4303F525
S32D0000ED006003CDE9002308464FF000024FF03F4303F5600300F07AF94FF000004FF07E5101F5E00105F0E4FCA2
S32D0000ED287B68184600F0AEFA41F2AC40C1F6FF704BF68421C0F2010107F056FF4FF000004FF07E5101F5E00195
S32D0000ED5005F0CEFC7B68184621A3D3E9002300F05DFA4FF000004FF07E5101F5E00105F0BFFC7B68184600F0A6
S32D0000ED7889FA4FF000004FF07E5101F5E00105F0B3FC7B68184616A3D3E9002300F042FA4FF000004FF07E51D0
S32D0000EDA001F5E00105F0A4FC7B68184600F06EFA41F2AC40C1F6FF704BF6A021C0F2010107F016FF4FF00000FA
S32D0000EDC84FF07E5101F5E00105F08EFC07F10807BD4680BDAFF300809A9999999999D93F9A9999999999D9BF72
S32D0000EDF080B582B000AF786041F2AC40C1F6FF704BF6B021C0F2010107F0F2FE7B6803F13003184601F0F0FCD0
S32D0000EE184FF000004FF07E5101F5F00105F064FC41F2AC40C1F6FF704BF6C021C0F2010107F0DAFE7B6803F182
S32D0000EE403003184601F0C8FC4FF000004FF07E5101F5F00105F04CFC41F2AC40C1F6FF704BF6C821C0F20101CA
S32D0000EE6807F0C2FE7B6803F13003184601F0D0FC4FF000004FF07E5101F5F00105F034FC41F2AC40C1F6FF7002
S32D0000EE904BF6C021C0F2010107F0AAFE7B6803F13003184601F098FC4FF000004FF07E5101F5F00105F01CFCB1
S32D0000EEB841F2AC40C1F6FF704BF6A021C0F2010107F092FE4FF000004FF07E5101F5E00105F00AFC07F1080784
S32D0000EEE0BD4680BD0000000080B582B000AF78607868FFF73FFB034683F00103DBB2002B66D141F21450C1F6C9
S32D0000EF08FF700BF0A9FA03461846FDF7E1FB02460B461046194630A3D3E90023FDF778FA02460B467968C1E9CD
S32D0000EF30202341F21450C1F6FF700BF0A1FA03461846FDF7C9FB02460B461046194626A3D3E90023FDF760FA7A
S32D0000EF5802460B467968C1E9222341F2AC40C1F6FF704BF6D821C0F2010107F075FD7B68D3E9202341F2AC4085
S32D0000EF80C1F6FF7007F05CFE41F2AC40C1F6FF704BF6E421C0F2010107F062FD7B68D3E9222341F2AC40C1F69D
S32D0000EFA8FF7007F049FE4FF000004FF0804101F5002105F099FB41F2AC40C1F6FF706FF07F4107F0A7FA00E0D3
S32D0000EFD000BF07F10807BD4680BD00BFAFF30080CDCCCCCCCCCC2E403333333333331B4080B483B000AF78607A
S32D0000EFF87B6823F00043184607F10C07BD4680BC704700BF90B585B000AFF860C7E900234FF001031C46D7E9DB
S32D0000F02008014FF000024FF00003FDF72FFE0346002B02D14FF000031C46E3B2002B3ED0FC684FF000004FF07A
S32D0000F0487E5101F5E001D7E90823FDF7E1F902460B4610461946D7E90023FDF78DFB02460B4610461946FB68DD
S32D0000F070D3E90423FDF784FB02460B4610461946FDF760FE03462046194602F0F9FFFB6803F10804FB68D3E902
S32D0000F098042310461946D7E90023FDF76DFB02460B4610461946FDF749FE03462046194602F0E2FF3DE0FC6844
S32D0000F0C0FB68D3E9042310461946D7E90023FDF757FB02460B4610461946FDF733FE03462046194602F0CCFFC0
S32D0000F0E8FB6803F10804D7E908014FF000024FF07E5303F5E003FDF78DF902460B4610461946D7E90023FDF703
S32D0000F11037FB02460B4610461946FB68D3E90423FDF72EFB02460B4610461946FDF70AFE03462046194602F0A4
S32D0000F138A3FF07F11407BD4690BD00BF90B585B000AFF860C7E90023FC68FB68D3E9042310461946D7E900234F
S32D0000F160FDF70EFB02460B4610461946FDF7EAFD03462046194602F083FFFB6803F10804FB68D3E904231046DA
S32D0000F1881946D7E90823FDF7F7FA02460B4610461946FDF7D3FD03462046194602F06CFF07F11407BD4690BD4A
S32D0000F1B090B585B000AFF860C7E90023FC68FB68D3E9042310461946D7E90023FDF7D8FA02460B461046194687
S32D0000F1D8FDF7B4FD03462046194602F04DFFFB6803F10804FB68D3E9042310461946D7E90023FDF7C1FA0246E0
S32D0000F2000B4610461946FDF79DFD03462046194602F036FF07F11407BD4690BDF0B585B000AFF860C7E9002300
S32D0000F228FE683C687B6883F00045FB68D3E9042320462946FDF7A0FA02460B4610461946FDF77CFD03463046F0
S32D0000F250194602F015FFFB6803F10804FB68D3E9042310461946D7E90023FDF789FA02460B4610461946FDF731
S32D0000F27865FD03462046194602F0FEFE07F11407BD46F0BD80B582B000AF78607B68184602F0A2FE7B6803F1AF
S32D0000F2A00803184602F09CFE07F10807BD4680BD90B589B002AFF860C7E90023FB68D3E9062310461946D7E9ED
S32D0000F2C80023FDF759FA02460B46C7E90423F86800F066FB0FE0D7E90A0123A3D3E90023FDF798F802460B4611
S32D0000F2F0CDE90023F868D7E90A23FFF723FFFB6803F12803184605F055FF0446FB6803F12903184605F04EFF1C
S32D0000F3180346E3181846FDF7C9F902460B46104619464FF000024FF08043FDF74FFB02460B464FF001010C4674
S32D0000F34010461946D7E90423FDF78CFC0346002B02D14FF000031C46E3B2002BBFD1F868FFF794FF07F11C0748
S32D0000F368BD4690BDAFF300807B14AE47E17AA43F90B58BB002AFF860C7E90023FB68D3E9082310461946D7E928
S32D0000F3900023FDF7F5F902460B461046194686A3D3E90023FDF716FB02460B46C7E90623F86800F0F9FA05F045
S32D0000F3B8C7F902460B46C7E9042304E0F868D7E90C23FFF727FFFB6803F12803184605F0EDFE0446FB6803F147
S32D0000F3E02903184605F0E6FE0346E3181846FDF761F902460B46104619464FF000024FF08043FDF7E7FA0246FE
S32D0000F4080B464FF001010C4610461946D7E90623FDF724FC0346002B02D14FF000031C46E3B2002B24D005F0AC
S32D0000F4308BF902460B4610461946D7E90423FCF7EBFF02460B464FF001010C46104619464FF000024FF08043F4
S32D0000F45803F50023FDF702FC0346002B02D14FF000031C46E3B2002B02D04FF0010301E04FF00003002BA1D1F9
S32D0000F480F868FFF703FF05F05FF902460B4610461946D7E90423FCF7BFFF02460B464FF001010C4610461946F2
S32D0000F4A84FF000024FF0804303F50023FDF7EAFB0346002B02D14FF000031C46E3B2002B72D04FF000024FF092
S32D0000F4D07E5303F5C003CDE90023F86838A3D3E90023FFF7E5FE05F02FF902460B46C7E9042304E0F868D7E925
S32D0000F4F80C23FFF78FFEFB6803F12803184605F055FE0446FB6803F12903184605F04EFE0346E3181846FDF70A
S32D0000F520C9F802460B46104619464FF000024FF08043FDF74FFA02460B464FF001010C4610461946D7E9062364
S32D0000F548FDF78CFB0346002B02D14FF000031C46E3B2002B24D005F0F3F802460B4610461946D7E90423FCF773
S32D0000F57053FF02460B464FF001010C46104619464FF000024FF0804303F50023FDF76AFB0346002B02D14FF0FD
S32D0000F59800031C46E3B2002B02D04FF0010301E04FF00003002BA1D107F12407BD4690BD0000000000807640A2
S32D0000F5C0333333333333E33FB0B58AB002AFF860C7E90023704BFB61704BBB6141F21450C1F6FF700AF05CFF4E
S32D0000F5E803461846FDF774F802460B4610461946D7E90023FCF70CFF02460B4610461946FDF79CFB03467B61C1
S32D0000F61041F2AC40C1F6FF70796907F04FFABB6983F000434FF00102144618467969FDF7A3FE0346002B02D1D3
S32D0000F6384FF000031C46E3B2002B40D07869FFF7D3FC03464FF00102144618465249FDF771FE0346002B02D102
S32D0000F6604FF000031C46E3B2002B11D07869FFF7BFFC03461846FDF72FF802460B4642A1D1E90001CDE90001F5
S32D0000F688F868FFF775FE66E078694449FDF7ACFB03467B617869FDF71BF804460D46FB6983F000431846FDF726
S32D0000F6B013F802460B46CDE90023F86822462B46FFF75AFE4BE04FF001031C4678693349FDF752FE0346002B43
S32D0000F6D802D14FF000031C46E3B2002B3BD07869FFF782FC03464FF00102144618462A49FDF720FE0346002B31
S32D0000F70002D14FF000031C46E3B2002B14D07869FCF7E2FF04460D46FB6983F000431846FCF7DAFF02460B4691
S32D0000F728CDE90023F86822462B46FFF721FE12E01A487969FDF756FB03467B617869FCF7C7FF02460B460EA10A
S32D0000F750D1E90001CDE90001F868FFF70DFE0CA1D1E9000104F0C4FFD7E90001FDF7EAFA0346F868194600F008
S32D0000F7782FFF07F12007BD46B0BD00BFAFF30080000000403333D33F9A9999999999C93F9A99993E0000803FA5
S32D0000F7A0000034430000B44390B58BB002AFF860C7E900234FF001031C46D7E900014FF000024FF00003FDF794
S32D0000F7C84DFA0346002B02D14FF000031C46E3B2002B0AD028A3D3E90023C7E9062328A3D3E90023C7E9042343
S32D0000F7F009E025A3D3E90023C7E9062320A3D3E90023C7E9042397F8303083F00103DBB2002B0BD0BB69BB61D0
S32D0000F818FB6983F00043FB613B693B617B6983F000437B61D7E90423CDE90023F868D7E90623FFF783FC4FF0D9
S32D0000F84000004FF07E5101F5C00104F051FFD7E90623CDE90023F868D7E90423FFF772FC4FF000004FF07E51D7
S32D0000F86801F5C00104F040FFF868FFF70BFD07F12407BD4690BD00BF9A9999999999D93F9A9999999999E93F8A
S32D0000F890B0B588B002AFF860C7E90023FB68D3E90845D7E90001FDF7D7FD02460B4620462946FCF765FF0246CF
S32D0000F8B80B461046194638A3D3E90023FDF786F802460B46C7E90423F86800F069F82AE04FF001031C46D7E960
S32D0000F8E000014FF000024FF00003FDF7D9F90346002B02D14FF000031C46E3B2002B0BD0D7E90A23CDE9002364
S32D0000F908F8684FF000024FF00003FFF717FC0AE04FF000024FF00003CDE90023F868D7E90A23FFF70BFCFB68F2
S32D0000F93003F12803184605F03DFC0446FB6803F12903184605F036FC0346E3181846FCF7B1FE02460B46104679
S32D0000F95819464FF000024FF08043FDF737F802460B464FF001010C4610461946D7E90423FDF774F90346002B1F
S32D0000F98002D14FF000031C46E3B2002BA4D1F868FFF77CFC07F11807BD46B0BDAFF30080000000000080764000
S32D0000F9A880B582B000AF78607B6803F12803184605F010FC7B6803F12903184605F00AFC07F10807BD4680BD3F
S32D0000F9D0F0B589B002AF786039606B4B7B616B4B3B616B4BFB6065E041F21450C1F6FF700AF036FD03464FF05D
S32D0000F9F80102144618463968FDF7BAFC0346002B02D14FF000031C46E3B2002B20D07B6983F000431846FCF755
S32D0000FA205BFE04460D463B6983F000431846FCF753FE02460B46CDE90023786822462B46FFF780FB524804F09C
S32D0000FA482DFE7868FFF71EFC504804F027FE2DE041F21450C1F6FF700AF0FEFC03464FF0010214461846396822
S32D0000FA70FDF764FC0346002B02D14FF000031C46E3B2002B16D03EA3D3E90023CDE9002378684FF000024FF08A
S32D0000FA987E5303F5A003FFF751FB3B4804F0FEFD7868FFF7EFFB394804F0F8FD41F21450C1F6FF700AF0D0FC73
S32D0000FAC003461846FCF708FE04460D463868FCF703FE02460B46104619464FF000024FF07E5303F5C003FCF7FA
S32D0000FAE897FC02460B464FF001010E4620462946FDF7B4F80346002B02D14FF000031E46F3B2002B2CD141F2CD
S32D0000FB101450C1F6FF700AF0A3FC03461846FCF7DBFD04460D463868FCF7D6FD02460B46104619464FF00002A0
S32D0000FB384FF07E5303F5C003FCF76CFC02460B464FF001010E4620462946FDF7A5F80346002B02D14FF000035C
S32D0000FB601E46F3B2002B02D04FF0010301E04FF00003002B7FF438AF07F11C07BD46F0BD000000403333D33F03
S32D0000FB880000803E9A99993ECDCC4C3ECDCCCC3EF0B589B002AF7860396078683968FFF713FF6F4B3B616E4B29
S32D0000FBB0FB606E4BBB604FF000037B616CE041F21450C1F6FF700AF04BFC03464FF00102144618463968FDF7B8
S32D0000FBD8CFFB0346002B02D14FF000031C46E3B2002B20D03B6983F000431846FCF770FD04460D46FB6883F00F
S32D0000FC0000431846FCF768FD02460B46CDE90023786822462B46FFF795FA544804F042FD7868FFF733FB5248C0
S32D0000FC2804F03CFD30E041F21450C1F6FF700AF013FC03464FF00102144618463968FDF779FB0346002B02D118
S32D0000FC504FF000031C46E3B2002B19D04FF000024FF07E5303F5A003CDE9002378684FF000024FF07E5303F54B
S32D0000FC78A003FFF763FA3B4804F010FD7868FFF701FB394804F00AFD7B6903F101037B6141F21450C1F6FF7021
S32D0000FCA00AF0DEFB03461846FCF716FD04460D463868FCF711FD02460B461046194628A3D3E90023FCF7A8FBEA
S32D0000FCC802460B464FF001010E4620462946FCF7C5FF0346002B02D14FF000031E46F3B2002B29D141F2145006
S32D0000FCF0C1F6FF700AF0B4FB03461846FCF7ECFC04460D463868FCF7E7FC02460B461046194613A3D3E900239F
S32D0000FD18FCF780FB02460B464FF001010E4620462946FCF7B9FF0346002B02D14FF000031E46F3B2002B05D00F
S32D0000FD407B69092B02DC4FF0010301E04FF00003002B7FF434AF07F11C07BD46F0BD00BF9A9999999999A93FAF
S32D0000FD680000803E295C8F3D295C0F3EAFF30080F0B585B000AF78603960604BFB60604BBB6054E041F21450D9
S32D0000FD90C1F6FF700AF064FB03464FF00102144618463968FDF7E8FA0346002B02D14FF000031C46E3B2002B61
S32D0000FDB812D078684FF000024FF07E5303F5A003FFF7F2F94E4804F069FC7868FFF75AFA4C4804F063FC2AE084
S32D0000FDE041F21450C1F6FF700AF03AFB03464FF00102144618463968FDF7A0FA0346002B02D14FF000031C46AC
S32D0000FE08E3B2002B13D0FB6883F000431846FCF75FFC02460B467868FFF7C6F9384804F03DFC7868FFF72EFA8B
S32D0000FE30364804F037FC41F21450C1F6FF700AF00FFB03461846FCF747FC04460D463868FCF742FC02460B465A
S32D0000FE58104619464FF000024FF07E5303F5C003FCF7D6FA02460B464FF001010E4620462946FCF7F3FE0346C8
S32D0000FE80002B02D14FF000031E46F3B2002B2CD141F21450C1F6FF700AF0E2FA03461846FCF71AFC04460D4603
S32D0000FEA83868FCF715FC02460B46104619464FF000024FF07E5303F5C003FCF7ABFA02460B464FF001010E4668
S32D0000FED020462946FCF7E4FE0346002B02D14FF000031E46F3B2002B02D04FF0010301E04FF00003002B7FF4C7
S32D0000FEF849AF07F11407BD46F0BD00BF0000803ECDCC4C3ECDCCCC3EF0B587B000AF7860396078683968FFF76B
S32D0000FF202BFF654B3B61654BFB604FF000037B6158E041F21450C1F6FF700AF091FA03464FF001021446184657
S32D0000FF483968FDF715FA0346002B02D14FF000031C46E3B2002B12D078684FF000024FF07E5303F5A003FFF798
S32D0000FF701FF9524804F096FB7868FFF787F9504804F090FB2AE041F21450C1F6FF700AF067FA03464FF0010212
S32D0000FF98144618463968FDF7CDF90346002B02D14FF000031C46E3B2002B13D03B6983F000431846FCF78CFB68
S32D0000FFC002460B467868FFF7F3F83C4804F06AFB7868FFF75BF93A4804F064FB7B6903F101037B6141F214508E
S32D0000FFE8C1F6FF700AF038FA03461846FCF770FB04460D463868FCF76BFB02460B461046194629A3D3E9002305
S32D00010010FCF702FA02460B464FF001010E4620462946FCF71FFE0346002B02D14FF000031E46F3B2002B29D108
S32D0001003841F21450C1F6FF700AF00EFA03461846FCF746FB04460D463868FCF741FB02460B461046194614A38E
S32D00010060D3E90023FCF7DAF902460B464FF001010E4620462946FCF713FE0346002B02D14FF000031E46F3B233
S32D00010088002B05D07B69092B02DC4FF0010301E04FF00003002B7FF448AF07F11C07BD46F0BD00BFAFF30080AC
S32D000100B09A9999999999A93F0000803E295C8F3D295C0F3EAFF30080F0B585B000AF78603960604BFB60604BF4
S32D000100D8BB6054E041F21450C1F6FF700AF0CCF903464FF00102144618463968FDF740F90346002B02D14FF097
S32D0001010000031C46E3B2002B12D078684FF000024FF07E5303F5A003FFF74AF84E4804F0C1FA7868FFF7B2F800
S32D000101284C4804F0BBFA2AE041F21450C1F6FF700AF0A2F903464FF00102144618463968FDF7F8F80346002BD3
S32D0001015002D14FF000031C46E3B2002B13D0FB6883F000431846FCF7B7FA02460B467868FFF71EF8384804F052
S32D0001017895FA7868FFF786F8364804F08FFA41F21450C1F6FF700AF077F903461846FCF79FFA04460D463868E3
S32D000101A0FCF79AFA02460B46104619464FF000024FF07E5303F5C003FCF72EF902460B464FF001010E462046A1
S32D000101C82946FCF74BFD0346002B02D14FF000031E46F3B2002B2CD141F21450C1F6FF700AF04AF90346184603
S32D000101F0FCF772FA04460D463868FCF76DFA02460B46104619464FF000024FF07E5303F5C003FCF703F9024659
S32D000102180B464FF001010E4620462946FCF73CFD0346002B02D14FF000031E46F3B2002B02D04FF0010301E01D
S32D000102404FF00003002B7FF449AF07F11407BD46F0BD00BF0000803ECDCC4C3ECDCCCC3EF0B585B000AF786050
S32D000102683960604BFB60604BBB6054E041F21450C1F6FF700AF000F903464FF00102144618463968FDF756F8F8
S32D000102900346002B02D14FF000031C46E3B2002B12D078684FF000024FF07E5303F5A003FEF77EFF4E4804F0EA
S32D000102B8F5F97868FEF7E6FF4C4804F0EFF92AE041F21450C1F6FF700AF0D6F803464FF001021446184639688C
S32D000102E0FDF74AF80346002B02D14FF000031C46E3B2002B13D0FB6883F000431846FCF7EBF902460B46786864
S32D00010308FEF752FF384804F0C9F97868FEF7BAFF364804F0C3F941F21450C1F6FF700AF0ABF803461846FCF79A
S32D00010330D3F904460D463868FCF7CEF902460B46104619464FF000024FF07E5303F5C003FCF762F802460B469B
S32D000103584FF001010E4620462946FCF77FFC0346002B02D14FF000031E46F3B2002B2CD141F21450C1F6FF7027
S32D000103800AF07EF803461846FCF7A6F904460D463868FCF7A1F902460B46104619464FF000024FF07E5303F544
S32D000103A8C003FCF737F802460B464FF001010E4620462946FCF770FC0346002B02D14FF000031E46F3B2002B22
S32D000103D002D04FF0010301E04FF00003002B7FF449AF07F11407BD46F0BD00BF0000803ECDCC4C3ECDCCCC3E2A
S32D000103F8F0B587B000AF7860396041F2AC40C1F6FF704BF61431C0F2010106F0EDFB78683968FFF721FF41F2B3
S32D00010420AC40C1F6FF704BF61C31C0F2010106F0DFFB654B3B61654BFB604FF000037B6158E041F21450C1F68E
S32D00010448FF700AF019F803464FF00102144618463968FCF76FFF0346002B02D14FF000031C46E3B2002B12D039
S32D0001047078684FF000024FF07E5303F5A003FEF797FE524804F00EF97868FEF7FFFE504804F008F92AE041F2D6
S32D000104981450C1F6FF7009F0EFFF03464FF00102144618463968FCF763FF0346002B02D14FF000031C46E3B20B
S32D000104C0002B13D03B6983F000431846FCF704F902460B467868FEF76BFE3C4804F0E2F87868FEF7D3FE3A4806
S32D000104E804F0DCF87B6903F101037B6141F21450C1F6FF7009F0C0FF03461846FCF7E8F804460D463868FCF746
S32D00010510E3F802460B461046194629A3D3E90023FBF77AFF02460B464FF001010E4620462946FCF797FB0346AC
S32D00010538002B02D14FF000031E46F3B2002B29D141F21450C1F6FF7009F096FF03461846FCF7BEF804460D46EE
S32D000105603868FCF7B9F802460B461046194614A3D3E90023FBF752FF02460B464FF001010E4620462946FCF70B
S32D000105888BFB0346002B02D14FF000031E46F3B2002B05D07B69092B02DC4FF0010301E04FF00003002B7FF432
S32D000105B048AF07F11C07BD46F0BD00BFAFF300809A9999999999A93F0000803E295C8F3D295C0F3EAFF30080F7
S32D000105D890B589B000AF78603960774BFB61774BBB61774B7B6141F21450C1F6FF7009F053FF03463B6138692E
S32D000106003968FCF7F3FB0346FB604FF001031C4638696E49FCF792FE0346002B02D14FF000031C46E3B2002B7A
S32D00010628E1D1BB6983F000434FF0010214461846F968FCF79DFE0346002B02D14FF000031C46E3B2002B26D08D
S32D00010650F868FEF7CDFC03464FF00102144618465B49FCF76BFE0346002B02D14FF000031C46E3B2002B06D099
S32D0001067878684FA3D3E90023FEF7CCFD41E0FB6983F000431846FCF723F802460B467868FEF7C0FD35E04FF0BE
S32D000106A001031C46F8684749FCF766FE0346002B02D14FF000031C46E3B2002B25D0F868FEF796FC03464FF06F
S32D000106C80102144618464049FCF734FE0346002B02D14FF000031C46E3B2002B0BD0FB6983F000431846FBF7AA
S32D000106F0F3FF02460B467868FEF790FD05E078682DA3D3E90023FEF789FD41F2AC40C1F6FF706FF07F4105F0A6
S32D0001071801FF41F2AC40C1F6FF70F96806F078FA274803F0BBFF7868FEF7ACFD224803F0B5FF41F21450C1F6AB
S32D00010740FF7009F0ADFE03463B6138693968FCF74DFB0346FB604FF001031C4638691B49FCF7ECFD0346002B77
S32D0001076802D14FF000031C46E3B2002BE1D138693968FCF737FB03461846FEF735FC03464FF001021446184602
S32D000107900C49FCF7F1FD0346002B02D14FF000031C46E3B2002B03D078683968FFF714FF07F12407BD4690BD89
S32D000107B8000000A09999C93FCDCC4C3E0000C03FCDCCCC3D0000000000003443AFF3008080B582B000AF7860ED
S32D000107E07A687B68DB681046194605F021F907F10807BD4680BD00BF80B582B000AF78607A687B681B6910468B
S32D00010808194605F011F907F10807BD4680BD00BF80B582B000AF78607A687B685B691046194605F001F907F14A
S32D000108300807BD4680BD00BF80B582B000AF78607A687B689B691046194605F0F1F807F10807BD4680BD00BF3B
S32D0001085890B583B000AF786013460A46FA70BB707C68D7E90601FCF769FA0346FA78204611461A4601F058FB17
S32D000108807B6803F10804D7E90601FCF75BFA0346BA78204611461A4601F04AFB7B6803F1280297F82030104653
S32D000108A8194604F0CBF87B6803F1290297F824301046194604F0C2F87B6803F12A0297F828301046194603F031
S32D000108D095FF7B6803F12B0297F82C301046194603F08CFF7B6803F12C0297F830301046194603F083FF796844
S32D000108F84FF000024FF0804303F5B203C1E9042379680BA3D3E90023C1E9062379680AA3D3E90023C1E908238D
S32D000109207B684FF0010283F82D207B68184607F10C07BD4690BD00BF17C94720983E44400000000000F08E4001
S32D0001094880B582B000AF78600B46FB707A68FB781046194605F00CF87B6818464FF4FF7105F024F87B6818468D
S32D0001097040F66A1105F03CF87B68084ADA607B68074A1A617B68074A5A617B68064A9A617B68184607F10807FB
S32D00010998BD4680BD0000000000008C420000A0420000AA4280B483B000AF78607B684FF000021A707B684FF096
S32D000109C001025A707B68144A5A607B684FF000021A727B684FF001025A727B684FF018029A727B684FF019021A
S32D000109E8DA727B684FF01A021A737B684FF000025A737B684FF006029A737B684FF00802DA737B68184607F1EF
S32D00010A100C07BD4680BC70470000104180B582B000AF78600B46FB707A68FB781046194604F0A2FF7B681846D3
S32D00010A384FF47A7104F0BAFF7B6818464FF4166104F0D2FF7B68054ADA607B68044A1A617B68184607F1080794
S32D00010A60BD4680BD00000000000034430000000084B02DE9F0418AB008AF786007F1240080E80E007E6897F865
S32D00010A88245097F82540BB6A1846FBF721FE02460B4697F82C8097F82DC097F82EE097F82F0097F83010CDE913
S32D00010AB00023CDF80880CDF80CC0CDF810E005900691304629462246FFF7C6FE7B6803F1300297F831301046DF
S32D00010AD81946FFF735FF7B6803F14C0297F833301046194604F08AFB7B6803F1500297F8323010461946FFF75C
S32D00010B008DFF7B684FF07A0283F8902079684FF000024FF0804303F5E013C1E91A23796811A3D3E90023C1E95D
S32D00010B281C23796810A3D3E90023C1E91E2379684FF000024FF00003C1E9202379684FF000024FF00003C1E9A2
S32D00010B5022237B68184607F10807BD46BDE8F04104B07047AFF300809A999999999929408FC2F5285C8F4740A3
S32D00010B7880B500AF41F23010C1F6FF70FDF7F6FC034683F00103DBB2002B12D141F23010C1F6FF70FDF702FF02
S32D00010BA0034683F00103DBB2002B08D141F23010C1F6FF70FCF760FC02E000BF00E000BF80BD00BF80B500AFCD
S32D00010BC841F23010C1F6FF70FEF78AF980BD00BF80B500AF41F23010C1F6FF70FDF79CFC41F23010C1F6FF704F
S32D00010BF0FEF77AF94FF000004FF0804101F5002103F076FD41F2AC40C1F6FF704BF62431C0F2010105F0ECFF43
S32D00010C1841F23010C1F6FF70FDF7C0FE034683F00103DBB2002B0ED141F2AC40C1F6FF706FF07F4105F06EFC48
S32D00010C4041F23010C1F6FF70FCF716FC00E000BF80BD00BFB0B5ADF5C66D06AF4FF00603C7F810363B461D462C
S32D00010C684FF0050406E0284607F034FB05F1EC0504F1FF34B4F1FF3F0CBF00230123DBB2002BF0D107F5B1620F
S32D00010C904FF0780310464FF000011A4609F095FD4BF62C33C0F2010307F5B1640FCB07C4237007F5B26303F156
S32D00010CB805034FF000021A7003F101034FF000021A7003F101034FF000021A7003F101034FF000021A7003F1FD
S32D00010CE001034FF000021A7003F101034FF000021A7003F101034FF000021A7003F101034BF64033C0F201032E
S32D00010D0807F5B26404F10C040FCB07C4237007F5B46303F109034FF000021A7003F101034FF000021A7003F1D8
S32D00010D3001034FF000021A7003F101034FF000021A7003F101034FF000021A7003F101034FF000021A7003F188
S32D00010D5801034FF000021A7003F101034BF65433C0F2010307F5B6640FCB84E80F004FF00003C7F8C0354BF685
S32D00010D806833C0F2010307F5B86404F104040FCB84E80F004FF00003C7F8D4354BF67C33C0F2010307F5BB64BE
S32D00010DA80FCB07C4238004F102044FEA1343237007F5BC6303F107034FF000021A7003F101034FF000021A7010
S32D00010DD003F101034FF000021A7003F101034FF000021A7003F101034FF000021A7003F101034BF69033C0F2FD
S32D00010DF8010307F5BC6404F10C041D460FCD0FC42B6823804FF00003A7F8FE353B464FF0140200924FF00002A2
S32D00010E2001924FF00002029207F5B16203924FF0000204924FF47F02059218464FF006014FF001024FF0140329
S32D00010E4807F054FD00F0F8FA4FF0000387F81736FCE100F057FA00E000BF07F5C06202F10C0207F5C16341F214
S32D00010E70AC40C1F6FF7011461A4605F0BDFC034683F00103DBB2002BE7D1D7F80C26D7F808363946084611467A
S32D00010E981A464FF0000307F06FFB0346002B0CBF00230123DBB2002B40D000BF07F5C06202F1040207F5C063E5
S32D00010EC041F2AC40C1F6FF7011461A4605F094FC0346002BEED141F2AC40C1F6FF706FF07F4105F01BFB41F2AD
S32D00010EE83010C1F6FF70FDF75DFB00F0BDF900F0A3FA3B464FF0140200924FF0000201924FF00002029207F5E9
S32D00010F10B16203924FF0000204924FF47F02059218464FF006014FF001024FF0140307F0E1FC8FE1D7F80C2657
S32D00010F38D7F80836394601F1EC01084611461A464FF0000307F018FB0346002B0CBF00230123DBB2002B40D080
S32D00010F6000BF07F5C06202F1040207F5C06341F2AC40C1F6FF7011461A4605F03DFC0346002BEED141F2AC40F1
S32D00010F88C1F6FF706FF07F4105F0C4FA41F23010C1F6FF70FDF74EFD00F066F900F04CFA3B464FF0140200927D
S32D00010FB04FF0000201924FF00002029207F5B16203924FF0000204924FF47F02059218464FF006014FF00102AD
S32D00010FD84FF0140307F08AFC38E1D7F80C26D7F80836394601F5EC71084611461A464FF0000307F0C1FA0346DC
S32D00011000002B0CBF00230123DBB2002B40D000BF07F5C06202F1040207F5C06341F2AC40C1F6FF7011461A46CB
S32D0001102805F0E6FB0346002BEED141F2AC40C1F6FF706FF07F4105F06DFA41F23010C1F6FF70FDF7D1FC00F086
S32D000110500FF900F0F5F93B464FF0140200924FF0000201924FF00002029207F5B16203924FF0000204924FF4BC
S32D000110787F02059218464FF006014FF001024FF0140307F033FCE1E0D7F80C26D7F80836394601F5317108469B
S32D000110A011461A464FF0000307F06AFA0346002B0CBF00230123DBB2002B40D000BF07F5C06202F1040207F5AD
S32D000110C8C06341F2AC40C1F6FF7011461A4605F08FFB0346002BEED141F2AC40C1F6FF706FF07F4105F016FABF
S32D000110F041F23010C1F6FF70FDF72EFD00F0B8F800F09EF93B464FF0140200924FF0000201924FF000020292E1
S32D0001111807F5B16203924FF0000204924FF47F02059218464FF006014FF001024FF0140307F0DCFB8AE0D7F88F
S32D000111400C26D7F80836394601F56C71084611461A464FF0000307F013FA0346002B0CBF00230123DBB2002B66
S32D0001116840D000BF07F5C06202F1040207F5C06341F2AC40C1F6FF7011461A4605F038FB0346002BEED141F2C9
S32D00011190AC40C1F6FF706FF07F4105F0BFF941F23010C1F6FF70FDF723FE00F061F800F047F93B464FF0140255
S32D000111B800924FF0000201924FF00002029207F5B16203924FF0000204924FF47F02059218464FF006014FF014
S32D000111E001024FF0140307F085FB33E0D7F80C16D7F808263B4603F5926303F10C0318464FF0000307F0BCF952
S32D000112080346002B0CBF00230123DBB2002B1DD000BF07F5C06202F1040207F5C06341F2AC40C1F6FF701146FB
S32D000112301A4605F0E1FA0346002BEED14FF0010387F8173641F2AC40C1F6FF706FF07F4105F064F997F817368B
S32D0001125883F00103DBB2002B7FF4FEAD07F5067707F58067BD46B0BD80B582B000AF41F2AC40C1F6FF706FF094
S32D000112807F4105F04BF941F2AC40C1F6FF704FF0000105F0A1F94FF0010003F0E9F941F2AC40C1F6FF704BF697
S32D000112A8A431C0F2010105F09FFC00BF07F104023B4641F2AC40C1F6FF7011461A4605F097FA034683F001037E
S32D000112D0DBB2002BEED100BF07F104023B4641F2AC40C1F6FF7011461A4605F085FA0346002BF1D141F2AC4075
S32D000112F8C1F6FF706FF07F4105F00CF907F10807BD4680BD80B582B000AF03F019FA02460B46104619464FF098
S32D0001132000024FF0804303F5B203FBF729FA02460B4610461946FBF7BDFC03467B60796846F26763C6F2666357
S32D0001134883FB01034FEA63024FEAE173D21A13464FEA83039B18CA1A002A67D141F2AC40C1F6FF704FF0000147
S32D0001137005F032F941F2F840C1F6FF7007F00EFC034618462D49FBF73BFE03461846FBF7FDFF03461846FBF726
S32D000113988DF902460B46104619464FF000024FF0804303F5B203FBF711FB02460B4610461946FBF7C3FC03461C
S32D000113C03B6041F2AC40C1F6FF7039684FF064024FF0030305F040F903F0B6F902460B46104619464FF0000234
S32D000113E84FF0804303F5B203FBF7C6F902460B4610461946FBF75AFC03467B6079684AF6AB23C2F6AA2383FBCA
S32D0001141001024FEAE173D21A13464FEA43039B184FEA4303CA1A002A14BF00230123DBB2002BD1D107F108079E
S32D00011438BD4680BD0000C84280B582B000AF41F2AC40C1F6FF704FF0000105F0C1F841F2AC40C1F6FF704BF66C
S32D00011460C431C0F201014FF000024FF0030305F0C7F841F2AC40C1F6FF704FF0000105F0ABF841F2F840C1F63B
S32D00011488FF7007F087FB034618461749FBF7B4FD03461846FBF776FF03461846FBF706F902460B4610461946AF
S32D000114B04FF000024FF0804303F5B203FBF78AFA02460B4610461946FBF73CFC03467B6041F2AC40C1F6FF70C6
S32D000114D879684FF064024FF0030305F0B9F807F10807BD4680BD00BF0000C842B0B5ADF5A66D06AF4FF005034E
S32D00011500C7F814353B461D464FF0040406E0284606F0E4FE05F1EC0504F1FF34B4F1FF3F0CBF00230123DBB2CC
S32D00011528002BF0D107F5926202F10C024FF0640310464FF000011A4609F043F94BF6D033C0F2010307F59262FC
S32D0001155002F10C0293E8030082E8030007F5946303F104034FF000021A6003F104034FF000021A6003F1040326
S32D000115784FF000021A6003F104034BF6E433C0F2010307F5966293E8030082E8030007F597634FF000021A60F0
S32D000115A003F104034FF000021A6003F104034FF000021A6003F104034BF6F833C0F2010307F5986404F104049E
S32D000115C81D460FCD0FC42B6823804FF00003A7F8D6344BF60C42C0F2010207F59B6307CA03C31A7007F59C6367
S32D000115F003F101034FF000021A7003F101034FF000021A7003F101034FF000021A7003F101034FF000021A70C0
S32D0001161803F101034FF000021A7003F101034FF000021A7003F101034FF000021A7003F101034FF000021A7097
S32D0001164003F101034FF000021A7003F101034FF000021A7003F101034FF000021A7003F101034BF62043C0F2E4
S32D00011668010307F59C6404F10C041D460FCD0FC42B6823804FF00003A7F8FE343B464FF0140200924FF000024A
S32D0001169001924FF00002029207F5926202F10C0203924FF0000204924FF47F02059218464FF005014FF0010226
S32D000116B84FF0140307F01AF9FFF7BEFE4FF0000387F81335BFE1FFF71DFE00E000BF07F5A06202F10C0207F59D
S32D000116E0A16341F2AC40C1F6FF7011461A4605F083F8034683F00103DBB2002BE7D1D7F80C25D7F808353946B0
S32D00011708084611461A464FF0000306F035FF0346002B0CBF00230123DBB2002B3ED000BF07F5A06202F104023F
S32D0001173007F5A06341F2AC40C1F6FF7011461A4605F05AF80346002BEED141F2AC40C1F6FF706FF07F4104F0BD
S32D00011758E1FEFFF70DFAFFF787FDFFF76DFE3B464FF0140200924FF0000201924FF00002029207F5926202F1B7
S32D000117800C0203924FF0000204924FF47F02059218464FF005014FF001024FF0140307F0A9F854E1D7F80C255D
S32D000117A8D7F80835394601F1EC01084611461A464FF0000306F0E0FE0346002B0CBF00230123DBB2002B3ED041
S32D000117D000BF07F5A06202F1040207F5A06341F2AC40C1F6FF7011461A4605F005F80346002BEED141F2AC40F5
S32D000117F8C1F6FF706FF07F4104F08CFEFFF7DEF9FFF732FDFFF718FE3B464FF0140200924FF0000201924FF086
S32D000118200002029207F5926202F10C0203924FF0000204924FF47F02059218464FF005014FF001024FF0140310
S32D0001184807F054F8FFE0D7F80C25D7F80835394601F5EC71084611461A464FF0000306F08BFE0346002B0CBF6C
S32D0001187000230123DBB2002B42D000BF07F5A06202F1040207F5A06341F2AC40C1F6FF7011461A4604F0B0FFE4
S32D000118980346002BEED141F2AC40C1F6FF706FF07F4104F037FE41F23010C1F6FF70FCF733FEFFF7D9FCFFF7E3
S32D000118C0BFFD3B464FF0140200924FF0000201924FF00002029207F5926202F10C0203924FF0000204924FF48C
S32D000118E87F02059218464FF005014FF001024FF0140306F0FBFFA6E0D7F80C25D7F80835394601F53171084697
S32D0001191011461A464FF0000306F032FE0346002B0CBF00230123DBB2002B3CD000BF07F5A06202F1040207F58D
S32D00011938A06341F2AC40C1F6FF7011461A4604F057FF0346002BEED141F2AC40C1F6FF706FF07F4104F0DEFDD1
S32D00011960FFF778F9FFF76CFD3B464FF0140200924FF0000201924FF00002029207F5926202F10C0203924FF0BC
S32D00011988000204924FF47F02059218464FF005014FF001024FF0140306F0A8FF53E0D7F80C25D7F808353946A7
S32D000119B001F56C71084611461A464FF0000306F0DFFD0346002B0CBF00230123DBB2002B3DD000BF07F5A06214
S32D000119D802F1040207F5A06341F2AC40C1F6FF7011461A4604F004FF0346002BEED141F2AC40C1F6FF706FF01E
S32D00011A007F4104F08BFDFFF7E7F8FFF731FCFFF717FD3B464FF0140200924FF0000201924FF00002029207F56C
S32D00011A28926202F10C0203924FF0000204924FF47F02059218464FF005014FF001024FF0140306F053FF97F8C1
S32D00011A50133583F00103DBB2002B7FF43BAE07F58C7707F58067BD46B0BD00BF80B500AF41F2AC40C1F6FF705A
S32D00011A786FF07F4104F04EFDFFF738FD4FF00003184680BD80B584B002AF786039607B68012B17D13A684FF670
S32D00011AA0FF739A4212D141F22010C1F6FF70FEF77DFF41F22013C1F6FF73DA6800920ECB41F23010C1F6FF7017
S32D00011AC8FEF7D2FF07F10807BD4680BD80B500AF4FF001004FF6FF71FFF7D4FF80BD00BF80B500AF41F2787243
S32D00011AF0C1F6FF7241F22013C1F6FF73D31A194641F22013C1F6FF731A460B4610464FF000011A4608F059FE3F
S32D00011B1880BD00BF09F0CEFE00F0B0F9FFF7E0FF09F0A0FE09F03CFE09F0D4FE00F00CF84FF0000041F2C8119B
S32D00011B40C1F6FF71FFF792FF0346184608F018FE80B500AF4FF4E043C4F204034FF4E042C4F2040202F5805222
S32D00011B6802F13802126842F4785203F5805303F138031A6000F02EF900F094F841F2F833C1F6FF734FF0580280
S32D00011B901A6041F2F833C1F6FF731B684FF47A7202FB03F241F2F433C1F6FF731A6041F2F433C1F6FF731B687E
S32D00011BB81A464FF4E043C4F2040303F5825303F104031B6803F070634FEA136303F10103B2FBF3F31A4641F29D
S32D00011BE0FC33C1F6FF731A604FF4E043C4F204034FF4E042C4F2040202F5805202F13C02126842F0225203F5AE
S32D00011C08805303F13C031A604FF4E043C4F204034FF4E042C4F2040202F5805202F13002126842F0006203F5F5
S32D00011C30805303F130031A604FF45043C4F203034FF480721A614FF0640002F0A5FB4FF45043C4F203034FF4C5
S32D00011C585042C4F20302526922F010025A614FF45043C4F203034FF000021A604FF45043C4F203034FF0100246
S32D00011C805A6103F003FC03F0ABFC41F2F030C1F6FF7002F005FC41F2AC40C1F6FF7004F08BFA41F2883002F0E7
S32D00011CA8E3FC80BD80B400AF4FF48043C4F206034FF000025A704FF48043C4F206034FF098021A704FF4804310
S32D00011CD0C4F206039B79DBB203F01003002B0CBF00230123DBB2002BF0D14FF48043C4F206039B79DBB203F070
S32D00011CF80C034FEA9303022B0CBF00230123DBB2002BEED14FF48043C4F206034FF018021A714FF48043C4F2C4
S32D00011D2006034FF000025A714FF4E043C4F2040303F5825303F104034FF00002C0F213121A604FF48043C4F246
S32D00011D4806034FF054025A7100BF4FF48043C4F206039B79DBB203F02003002B14BF00230123DBB2002BF0D10A
S32D00011D7000BF4FF48043C4F206039B79DBB203F04003002B14BF00230123DBB2002BF0D14FF48043C4F2060366
S32D00011D984FF48042C4F206021278D2B202F03F02D2B21A704FF48043C4F206039B79DBB203F00C034FEA9303D3
S32D00011DC0032B0CBF00230123DBB2002BEED14FF000031846BD4680BC704700BF80B400AF4FF44043C4F2040382
S32D00011DE84FF480725A634FF2C003C4F20F034FF2C002C4F20F02526942F400525A614FF2C003C4F20F034FF239
S32D00011E10C002C4F20F02126842F400521A604FF44043C4F2040340F20312C0F20A021A634FF46143CEF20003EF
S32D00011E384FF46142CEF20002D2F8882142F08062C3F888214FF46143CEF200034FF46142CEF20002926842F06A
S32D00011E6080629A60BD4680BC704700BF80B483B000AF7860FEE700BF80B400AF00BEBD4680BC704780B400AFB6
S32D00011E884FF0E0224CF20003C0F20003C2F8083D4FF40053C4F205034CF22052DA814FF40053C4F205034DF6FF
S32D00011EB02812DA814FF40053C4F205034FF0D2021A80BD4680BC704780B500AF4FF44043C4F20403D3F8A03075
S32D00011ED803F48053002B0CBF00230123DBB2002B1FD04FF44043C4F204034FF44042C4F20402D2F8A02022F489
S32D00011F008052C3F8A02041F23450C1F6FF7008F0BDFB4FF2C003C4F20F034FF2C002C4F20F02126822F4005260
S32D00011F281A6080BD0000000090B585B000AFF8600B467A60FB72FB68FA7A1A71FB684FF000025A714FF00103A6
S32D00011F501C4678682049FBF70FFA0346002B02D14FF000031C46E3B2002B02D01A4B7B6011E04FF001031C4669
S32D00011F7878681849FBF7E8F90346002B02D14FF000031C46E3B2002B01D0124B7B607868FAF79EFB02460B466F
S32D00011FA0104619460AA3D3E90023FAF7E9FB02460B4610461946FAF7C5FE0246FB681A60FB68184607F1140701
S32D00011FC8BD4690BDAFF30080ABAAAAAAAAAA2040000040410000803F80B582B000AF78607B685B79002B10D02B
S32D00011FF07B684FF000025A717B681B7941F2F030C1F6FF7019464FF000024FF01E0302F091FA07F10807BD465C
S32D0001201880BD00BF80B584B000AF786039603B687F2B03DD4FF07F03FB7309E03B6813F1800F03DA4FF08003FA
S32D00012040FB7301E03B68FB737B685B79FA7B9A420FD07B68FA7B5A717B681A79FB7B41F2F030C1F6FF7011464B
S32D000120681A464FF01E0302F061FA07F11007BD4680BD00BF00000000B0B584B000AF786039604FF001031C46D0
S32D0001209038684D49FBF752F90346002B02D14FF000031C46E3B2002B02D0474B3B6011E04FF001031C463868CE
S32D000120B84449FBF75DF90346002B02D14FF000031C46E3B2002B01D03E4B3B603868FAF7FFFA04460D467B687A
S32D000120E01B681846FAF7F8FA02460B46104619464FF000024FF0804303F5B203FAF76AFC02460B46204629460A
S32D00012108FAF73AFB02460B4610461946FAF716FE03463B604FF001031C4638682A49FBF71DF90346002B02D144
S32D000121304FF000031C46E3B2002B14D03868FAF7CBFA02460B46104619461DA3D3E90023FAF716FB02460B465A
S32D0001215810461946FAF7AAFD0346FB6022E03868FAF7B6FA02460B46104619464FF000024FF0804303F5C003D8
S32D00012180FAF7FEFA02460B46104619464FF000024FF0804303F5B203FAF71CFC02460B4610461946FAF786FD3E
S32D000121A80346FB607868F968FFF734FF07F11007BD46B0BDAFF3008052B81E85EB51F43F0000C8C20000C842A9
S32D000121D000000000AFF3008080B485B000AF02460B46FA71BB71BB79002B07D141F2CC13C1F6FF734FF00002C3
S32D000121F81A7006E041F2CC13C1F6FF734FF001021A704FF03803FB7341F2CC13C1F6FF731A78FB7B1343FB7352
S32D000122204FF4C043C4F206034FF4C042C4F206029278D2B242F01002D2B29A704FF4C043C4F206034FF4C042DD
S32D00012248C4F206029278D2B242F02002D2B29A704FF4C043C4F20603FA7B1A7107F11407BD4680BC704700BF6C
S32D0001227080B483B000AF4FF001037B6004E000BF7B6803F101037B607B68312BCCBF00230123DBB2002BF2D126
S32D0001229807F10C07BD4680BC704700BF80B582B000AF02460B46FA71BB7141F2CD13C1F6FF731B7818464FF0A5
S32D000122C00001FFF789FF4FF4C043C4F20603DB78DBB203F00203002B14BF00230123DBB2002BF0D14FF4C0438F
S32D000122E8C4F206034FF4C042C4F20602D278D2B242F00202D2B2DA704FF4C043C4F20603FA791A714FF4C043EA
S32D00012310C4F20603DB78DBB203F00203002B14BF00230123DBB2002BF0D14FF4C043C4F206034FF4C042C4F249
S32D000123380602D278D2B242F00202D2B2DA704FF4C043C4F20603BA791A714FF4C043C4F20603DB78DBB203F001
S32D000123600203002B14BF00230123DBB2002BF0D14FF4C043C4F206034FF4C042C4F20602D278D2B242F002027F
S32D00012388D2B2DA704FF4C043C4F206034FF4C042C4F206029278D2B222F02002D2B29A704FF4C043C4F20603FB
S32D000123B04FF4C042C4F206029278D2B222F01002D2B29A70FFF754FF07F10807BD4680BD80B582B000AF0346CC
S32D000123D8FB71FB79184600F06BF807F10807BD4680BD00BF80B582B000AF02460B46FA71BB7100F039F8FB7964
S32D000124004FEA4303DBB21846FFF7E2FFBB791846FFF7DEFF00F03EF807F10807BD4680BD80B500AF4FF0FF0078
S32D0001242800F046F80346184680BD00BF80B584B000AF0346FB7100F017F8FB794FEA4303DBB243F00103DBB2A4
S32D00012450DBB21846FFF7BCFFFFF7E2FF0346FB7300F018F8FB7B184607F11007BD4680BD80B400AF4FF24003A9
S32D00012478C4F20F034FF24002C4F20F02926842F480129A60BD4680BC704700BF80B400AF4FF24003C4F20F0383
S32D000124A04FF24002C4F20F02526842F480125A60BD4680BC704700BF80B485B000AF0346FB714FF00003BB7395
S32D000124C803E0FB7B03F10103FB734FF44043C4F20A03DB6A4FF00003002BF2D14FF44043C4F20A034FF44042DA
S32D000124F0C4F20A02D26A42F00042DA624FF44043C4F20A03FA795A6300BF4FF44043C4F20A03DB6A03F400339F
S32D00012518002B14BF00230123DBB2002BF1D14FF44043C4F20A039B6BBB73BB7B184607F11407BD4680BC70477B
S32D0001254080B582B000AF4FF4E043C4F204034FF4E042C4F2040202F5805202F13002126842F4805203F58053D7
S32D0001256803F130031A604FF42043C4F204034FF480721A654FF24003C4F20F034FF24002C4F20F02526942F405
S32D0001259080125A61FFF77EFF4FF42043C4F204034FF400725A654FF42043C4F204034FF400729A654FF42043C8
S32D000125B8C4F204034FF40072DA654FF44043C4F20A034FF44062C8F200021A604FF44043C4F20A034FF00502D0
S32D000125E0C3F60062DA604FF000037B6007E04FF0FF00FFF7EDFE7B6803F101037B607B68092BCCBF00230123B5
S32D00012608DBB2002BEFD104A1D1E9000102F06CF807F10807BD4680BD9A9999999999B93F90B486B000AFF8601E
S32D00012630B9607A60FA684FF42043C4F206039A4214D14FF4E043C4F204034FF4E042C4F2040202F5805202F100
S32D000126583402126842F4806203F5805303F134031A6083E0FA684FF43043C4F206039A4214D14FF4E043C4F204
S32D0001268004034FF4E042C4F2040202F5805202F13402126842F4006203F5805303F134031A6067E0FA684FF4A3
S32D000126A84043C4F206039A4214D14FF4E043C4F204034FF4E042C4F2040202F5805202F13402126842F4805248
S32D000126D003F5805303F134031A604BE0FA684FF45043C4F206039A4214D14FF4E043C4F204034FF4E042C4F24A
S32D000126F8040202F5805202F13402126842F4005203F5805303F134031A602FE0FA684FF42043C4F20E039A428F
S32D0001272014D14FF4E043C4F204034FF4E042C4F2040202F5805202F12802126842F4806203F5805303F12803FF
S32D000127481A6013E04FF4E043C4F204034FF4E042C4F2040202F5805202F12802126842F4006203F5805303F1FA
S32D0001277028031A60FB68DB78DBB223F00C03DAB2FB68DA70FB684FF000029A70BB684FF47A7202FB03F27B6822
S32D000127984FEA031392FBF3F39CB2FB681B78DBB223F01F03FB75234603F4F8534FEA2323DBB203F01F03DAB282
S32D000127C0FB7D1343DAB2FB681A70E2B2FB685A70BB684FF4FA4202FB03F27B684FEA031392FBF3F39AB22346F4
S32D000127E819464FEAC121CB1A4FEA43139BB2D3189CB2FB689B7ADBB223F01F03FB75E3B203F01F03DAB2FB7DF6
S32D000128101343DAB2FB689A72FB68DB78DBB243F00C03DAB2FB68DA7007F11807BD4690BC704700BF80B483B047
S32D0001283800AF786000BF7B681B79DBB203F02003002B14BF00230123DBB2002BF3D17B68DB79DBB2184607F136
S32D000128600C07BD4680BC704780B483B000AF78600B46FB7000BF7B681B79DBB2DBB26FEA0303DBB24FEAD3133B
S32D00012888DBB2002BF3D17B68FA78DA7107F10C07BD4680BC704700BF80B487B000AFF860B9607A60FB687B61A1
S32D000128B007E0BB68DAB27B691A707B6903F101037B617B68002B0CBF00230123DBB27A6802F1FF327A60002B85
S32D000128D8EBD107F11C07BD4680BC704780B584B000AF786039607B681B6BFB60FA683B689A4264D07B681B792B
S32D00012900002B43D07B685A787B6803F1340310461946FA684FF0010301F0ACFB0346002B0CBF00230123DBB2A2
S32D00012928002B02D04FF001034BE07B684FF000021A717B685A6A7B681B6AD218FB689A4220D97B68DB78FB7292
S32D0001295014E07B681B6AFA68D318FB607B685A787B6803F1340310461946FA684FF0010301F080FBFB7A03F162
S32D00012978FF33FB72FB7A012B94BF00230123DBB2002BE2D13B68002B19D07B685A787B6803F1340310461946BC
S32D000129A03A684FF0010301F057FA0346002B0CBF00230123DBB2002B02D04FF0010304E07B683A681A634FF069
S32D000129C80003184607F11007BD4680BD80B584B000AF786078684FF00001FFF77FFF0346FB73FB7B002B40F024
S32D000129F0AE807B681B78032B40F095807B685B79002B00F090807B684FF000021A637B6803F1340318464FF073
S32D00012A1800014FF40072FFF73FFF7B684FF0550283F832227B684FF0AA0283F833227B684FF0520283F834207A
S32D00012A407B684FF0520283F835207B684FF0610283F836207B684FF0410283F837207B684FF0720283F8182249
S32D00012A687B684FF0720283F819227B684FF0410283F81A227B684FF0610283F81B227B681B69DAB27B6883F849
S32D00012A901C227B681B699BB24FEA2323DAB27B6883F81D227B681B694FEA1343DAB27B6883F81E227B681B69F6
S32D00012AB84FEA1363DAB27B6883F81F227B68DB68DAB27B6883F820227B68DB689BB24FEA2323DAB27B6883F8E7
S32D00012AE021227B68DB684FEA1343DAB27B6883F822227B68DB684FEA1363DAB27B6883F823227B6859787B6806
S32D00012B0803F134027B685B69084611461A464FF0010301F0ABFA7B684FF000025A717B685B7818464FF00001AC
S32D00012B304FF0000201F084FB0346002B0CBF00230123DBB2002B02D04FF00103FB73FB7B184607F11007BD461E
